{
  "_format": "hh-sol-artifact-1",
  "contractName": "Freelancing",
  "sourceName": "contracts/Freelancing.sol",
  "abi": [
    {
      "inputs": [],
      "stateMutability": "nonpayable",
      "type": "constructor"
    },
    {
      "inputs": [
        {
          "internalType": "uint256",
          "name": "_projectId",
          "type": "uint256"
        }
      ],
      "name": "acceptWork",
      "outputs": [],
      "stateMutability": "nonpayable",
      "type": "function"
    },
    {
      "inputs": [
        {
          "internalType": "uint256",
          "name": "_projectId",
          "type": "uint256"
        }
      ],
      "name": "cancelProject",
      "outputs": [],
      "stateMutability": "nonpayable",
      "type": "function"
    },
    {
      "inputs": [
        {
          "internalType": "uint256",
          "name": "_projectId",
          "type": "uint256"
        }
      ],
      "name": "completeWork",
      "outputs": [],
      "stateMutability": "nonpayable",
      "type": "function"
    },
    {
      "inputs": [
        {
          "internalType": "address payable",
          "name": "_client",
          "type": "address"
        },
        {
          "internalType": "address payable",
          "name": "_freelancer",
          "type": "address"
        },
        {
          "internalType": "uint256",
          "name": "_duration",
          "type": "uint256"
        }
      ],
      "name": "createProject",
      "outputs": [
        {
          "internalType": "uint256",
          "name": "",
          "type": "uint256"
        }
      ],
      "stateMutability": "payable",
      "type": "function"
    },
    {
      "inputs": [],
      "name": "getAllProjects",
      "outputs": [
        {
          "components": [
            {
              "internalType": "address payable",
              "name": "client",
              "type": "address"
            },
            {
              "internalType": "address payable",
              "name": "freelancer",
              "type": "address"
            },
            {
              "internalType": "uint256",
              "name": "amount",
              "type": "uint256"
            },
            {
              "internalType": "uint256",
              "name": "deadline",
              "type": "uint256"
            },
            {
              "internalType": "bool",
              "name": "workCompleted",
              "type": "bool"
            },
            {
              "internalType": "bool",
              "name": "workAccepted",
              "type": "bool"
            },
            {
              "internalType": "bool",
              "name": "fundsReleased",
              "type": "bool"
            },
            {
              "internalType": "bool",
              "name": "cancelled",
              "type": "bool"
            },
            {
              "internalType": "bool",
              "name": "dispute",
              "type": "bool"
            }
          ],
          "internalType": "struct Freelancing.Project[]",
          "name": "",
          "type": "tuple[]"
        }
      ],
      "stateMutability": "view",
      "type": "function"
    },
    {
      "inputs": [
        {
          "internalType": "uint256",
          "name": "_projectId",
          "type": "uint256"
        }
      ],
      "name": "getProjectInfo",
      "outputs": [
        {
          "internalType": "address payable",
          "name": "client",
          "type": "address"
        },
        {
          "internalType": "address payable",
          "name": "freelancer",
          "type": "address"
        },
        {
          "internalType": "uint256",
          "name": "amount",
          "type": "uint256"
        },
        {
          "internalType": "uint256",
          "name": "deadline",
          "type": "uint256"
        },
        {
          "internalType": "bool",
          "name": "workCompleted",
          "type": "bool"
        },
        {
          "internalType": "bool",
          "name": "workAccepted",
          "type": "bool"
        },
        {
          "internalType": "bool",
          "name": "fundsReleased",
          "type": "bool"
        },
        {
          "internalType": "bool",
          "name": "cancelled",
          "type": "bool"
        },
        {
          "internalType": "bool",
          "name": "dispute",
          "type": "bool"
        }
      ],
      "stateMutability": "view",
      "type": "function"
    },
    {
      "inputs": [],
      "name": "getProjectLength",
      "outputs": [
        {
          "internalType": "uint256",
          "name": "",
          "type": "uint256"
        }
      ],
      "stateMutability": "view",
      "type": "function"
    },
    {
      "inputs": [],
      "name": "projectId",
      "outputs": [
        {
          "internalType": "uint256",
          "name": "",
          "type": "uint256"
        }
      ],
      "stateMutability": "view",
      "type": "function"
    },
    {
      "inputs": [
        {
          "internalType": "uint256",
          "name": "",
          "type": "uint256"
        }
      ],
      "name": "projects",
      "outputs": [
        {
          "internalType": "address payable",
          "name": "client",
          "type": "address"
        },
        {
          "internalType": "address payable",
          "name": "freelancer",
          "type": "address"
        },
        {
          "internalType": "uint256",
          "name": "amount",
          "type": "uint256"
        },
        {
          "internalType": "uint256",
          "name": "deadline",
          "type": "uint256"
        },
        {
          "internalType": "bool",
          "name": "workCompleted",
          "type": "bool"
        },
        {
          "internalType": "bool",
          "name": "workAccepted",
          "type": "bool"
        },
        {
          "internalType": "bool",
          "name": "fundsReleased",
          "type": "bool"
        },
        {
          "internalType": "bool",
          "name": "cancelled",
          "type": "bool"
        },
        {
          "internalType": "bool",
          "name": "dispute",
          "type": "bool"
        }
      ],
      "stateMutability": "view",
      "type": "function"
    },
    {
      "inputs": [
        {
          "internalType": "uint256",
          "name": "_projectId",
          "type": "uint256"
        }
      ],
      "name": "raiseDispute",
      "outputs": [],
      "stateMutability": "nonpayable",
      "type": "function"
    },
    {
      "inputs": [
        {
          "internalType": "uint256",
          "name": "_projectId",
          "type": "uint256"
        }
      ],
      "name": "refund",
      "outputs": [],
      "stateMutability": "nonpayable",
      "type": "function"
    },
    {
      "inputs": [
        {
          "internalType": "uint256",
          "name": "_projectId",
          "type": "uint256"
        }
      ],
      "name": "releaseFunds",
      "outputs": [],
      "stateMutability": "nonpayable",
      "type": "function"
    },
    {
      "inputs": [
        {
          "internalType": "uint256",
          "name": "_projectId",
          "type": "uint256"
        },
        {
          "internalType": "bool",
          "name": "Cfavour",
          "type": "bool"
        }
      ],
      "name": "resolveDispute",
      "outputs": [],
      "stateMutability": "nonpayable",
      "type": "function"
    }
  ],
  "bytecode": "0x6080604052600060025534801561001557600080fd5b50336000806101000a81548173ffffffffffffffffffffffffffffffffffffffff021916908373ffffffffffffffffffffffffffffffffffffffff16021790555061235b806100656000396000f3fe6080604052600436106100c25760003560e01c80634d68282f1161007f578063873a287811610059578063873a28781461025a578063a5c1674e14610283578063f94d19ba146102ac578063fabf5968146102dc576100c2565b80634d68282f146101dd5780634e533b781461020657806380d038291461022f576100c2565b80630e539a46146100c7578063107046bd146100f25780632494114714610137578063278ecde11461016057806334b25ee2146101895780633fafa127146101b2575b600080fd5b3480156100d357600080fd5b506100dc610321565b6040516100e991906114da565b60405180910390f35b3480156100fe57600080fd5b5061011960048036038101906101149190611526565b61032b565b60405161012e999897969594939291906115af565b60405180910390f35b34801561014357600080fd5b5061015e60048036038101906101599190611526565b6103fa565b005b34801561016c57600080fd5b5061018760048036038101906101829190611526565b610585565b005b34801561019557600080fd5b506101b060048036038101906101ab9190611668565b610757565b005b3480156101be57600080fd5b506101c761095a565b6040516101d491906114da565b60405180910390f35b3480156101e957600080fd5b5061020460048036038101906101ff9190611526565b610960565b005b34801561021257600080fd5b5061022d60048036038101906102289190611526565b610b82565b005b34801561023b57600080fd5b50610244610c9e565b604051610251919061183c565b60405180910390f35b34801561026657600080fd5b50610281600480360381019061027c9190611526565b610eb5565b005b34801561028f57600080fd5b506102aa60048036038101906102a59190611526565b610fd0565b005b6102c660048036038101906102c1919061188a565b611146565b6040516102d391906114da565b60405180910390f35b3480156102e857600080fd5b5061030360048036038101906102fe9190611526565b61134d565b604051610318999897969594939291906115af565b60405180910390f35b6000600254905090565b60016020528060005260406000206000915090508060000160009054906101000a900473ffffffffffffffffffffffffffffffffffffffff16908060010160009054906101000a900473ffffffffffffffffffffffffffffffffffffffff16908060020154908060030154908060040160009054906101000a900460ff16908060040160019054906101000a900460ff16908060040160029054906101000a900460ff16908060040160039054906101000a900460ff16908060040160049054906101000a900460ff16905089565b60006001600083815260200190815260200160002090508060000160009054906101000a900473ffffffffffffffffffffffffffffffffffffffff1673ffffffffffffffffffffffffffffffffffffffff163373ffffffffffffffffffffffffffffffffffffffff16146104a3576040517f08c379a000000000000000000000000000000000000000000000000000000000815260040161049a90611960565b60405180910390fd5b8060040160009054906101000a900460ff16156104f5576040517f08c379a00000000000000000000000000000000000000000000000000000000081526004016104ec906119f2565b60405180910390fd5b60018160040160036101000a81548160ff0219169083151502179055508060000160009054906101000a900473ffffffffffffffffffffffffffffffffffffffff1673ffffffffffffffffffffffffffffffffffffffff166108fc82600201549081150290604051600060405180830381858888f19350505050158015610580573d6000803e3d6000fd5b505050565b60006001600083815260200190815260200160002090508060010160009054906101000a900473ffffffffffffffffffffffffffffffffffffffff1673ffffffffffffffffffffffffffffffffffffffff163373ffffffffffffffffffffffffffffffffffffffff161461062e576040517f08c379a000000000000000000000000000000000000000000000000000000000815260040161062590611a84565b60405180910390fd5b8060030154421015610675576040517f08c379a000000000000000000000000000000000000000000000000000000000815260040161066c90611b16565b60405180910390fd5b8060040160029054906101000a900460ff16156106c7576040517f08c379a00000000000000000000000000000000000000000000000000000000081526004016106be90611b82565b60405180910390fd5b60018160040160026101000a81548160ff0219169083151502179055508060000160009054906101000a900473ffffffffffffffffffffffffffffffffffffffff1673ffffffffffffffffffffffffffffffffffffffff166108fc82600201549081150290604051600060405180830381858888f19350505050158015610752573d6000803e3d6000fd5b505050565b600060016000848152602001908152602001600020905060008054906101000a900473ffffffffffffffffffffffffffffffffffffffff1673ffffffffffffffffffffffffffffffffffffffff163373ffffffffffffffffffffffffffffffffffffffff16146107fc576040517f08c379a00000000000000000000000000000000000000000000000000000000081526004016107f390611c14565b60405180910390fd5b8060040160049054906101000a900460ff161561084e576040517f08c379a000000000000000000000000000000000000000000000000000000000815260040161084590611ca6565b60405180910390fd5b81156108c8578060000160009054906101000a900473ffffffffffffffffffffffffffffffffffffffff1673ffffffffffffffffffffffffffffffffffffffff166108fc82600201549081150290604051600060405180830381858888f193505050501580156108c2573d6000803e3d6000fd5b50610938565b8060010160009054906101000a900473ffffffffffffffffffffffffffffffffffffffff1673ffffffffffffffffffffffffffffffffffffffff166108fc82600201549081150290604051600060405180830381858888f19350505050158015610936573d6000803e3d6000fd5b505b60018160040160026101000a81548160ff021916908315150217905550505050565b60025481565b60006001600083815260200190815260200160002090508060000160009054906101000a900473ffffffffffffffffffffffffffffffffffffffff1673ffffffffffffffffffffffffffffffffffffffff163373ffffffffffffffffffffffffffffffffffffffff1614610a09576040517f08c379a0000000000000000000000000000000000000000000000000000000008152600401610a0090611d38565b60405180910390fd5b8060040160019054906101000a900460ff16610a5a576040517f08c379a0000000000000000000000000000000000000000000000000000000008152600401610a5190611dca565b60405180910390fd5b80600301544210610aa0576040517f08c379a0000000000000000000000000000000000000000000000000000000008152600401610a9790611e5c565b60405180910390fd5b8060040160029054906101000a900460ff1615610af2576040517f08c379a0000000000000000000000000000000000000000000000000000000008152600401610ae990611b82565b60405180910390fd5b60018160040160026101000a81548160ff0219169083151502179055508060010160009054906101000a900473ffffffffffffffffffffffffffffffffffffffff1673ffffffffffffffffffffffffffffffffffffffff166108fc82600201549081150290604051600060405180830381858888f19350505050158015610b7d573d6000803e3d6000fd5b505050565b60006001600083815260200190815260200160002090508060040160039054906101000a900460ff1615610beb576040517f08c379a0000000000000000000000000000000000000000000000000000000008152600401610be290611eee565b60405180910390fd5b8060010160009054906101000a900473ffffffffffffffffffffffffffffffffffffffff1673ffffffffffffffffffffffffffffffffffffffff163373ffffffffffffffffffffffffffffffffffffffff1614610c7d576040517f08c379a0000000000000000000000000000000000000000000000000000000008152600401610c7490611f80565b60405180910390fd5b60018160040160006101000a81548160ff0219169083151502179055505050565b6060600060025467ffffffffffffffff811115610cbe57610cbd611fa0565b5b604051908082528060200260200182016040528015610cf757816020015b610ce461143f565b815260200190600190039081610cdc5790505b5090506000600190505b6002548111610ead5760016000828152602001908152602001600020604051806101200160405290816000820160009054906101000a900473ffffffffffffffffffffffffffffffffffffffff1673ffffffffffffffffffffffffffffffffffffffff1673ffffffffffffffffffffffffffffffffffffffff1681526020016001820160009054906101000a900473ffffffffffffffffffffffffffffffffffffffff1673ffffffffffffffffffffffffffffffffffffffff1673ffffffffffffffffffffffffffffffffffffffff16815260200160028201548152602001600382015481526020016004820160009054906101000a900460ff161515151581526020016004820160019054906101000a900460ff161515151581526020016004820160029054906101000a900460ff161515151581526020016004820160039054906101000a900460ff161515151581526020016004820160049054906101000a900460ff16151515158152505082600183610e7e9190611ffe565b81518110610e8f57610e8e612032565b5b60200260200101819052508080610ea590612061565b915050610d01565b508091505090565b60006001600083815260200190815260200160002090508060000160009054906101000a900473ffffffffffffffffffffffffffffffffffffffff1673ffffffffffffffffffffffffffffffffffffffff163373ffffffffffffffffffffffffffffffffffffffff1614610f5e576040517f08c379a0000000000000000000000000000000000000000000000000000000008152600401610f559061211b565b60405180910390fd5b8060040160009054906101000a900460ff16610faf576040517f08c379a0000000000000000000000000000000000000000000000000000000008152600401610fa6906121ad565b60405180910390fd5b60018160040160016101000a81548160ff0219169083151502179055505050565b60006001600083815260200190815260200160002090508060000160009054906101000a900473ffffffffffffffffffffffffffffffffffffffff1673ffffffffffffffffffffffffffffffffffffffff163373ffffffffffffffffffffffffffffffffffffffff16148061109457508060010160009054906101000a900473ffffffffffffffffffffffffffffffffffffffff1673ffffffffffffffffffffffffffffffffffffffff163373ffffffffffffffffffffffffffffffffffffffff16145b6110d3576040517f08c379a00000000000000000000000000000000000000000000000000000000081526004016110ca9061223f565b60405180910390fd5b8060040160029054906101000a900460ff1615611125576040517f08c379a000000000000000000000000000000000000000000000000000000000815260040161111c906122d1565b60405180910390fd5b60018160040160046101000a81548160ff0219169083151502179055505050565b60006002600081548092919061115b90612061565b91905055506040518061012001604052808573ffffffffffffffffffffffffffffffffffffffff1681526020018473ffffffffffffffffffffffffffffffffffffffff16815260200134815260200183426111b691906122f1565b81526020016000151581526020016000151581526020016000151581526020016000151581526020016000151581525060016000600254815260200190815260200160002060008201518160000160006101000a81548173ffffffffffffffffffffffffffffffffffffffff021916908373ffffffffffffffffffffffffffffffffffffffff16021790555060208201518160010160006101000a81548173ffffffffffffffffffffffffffffffffffffffff021916908373ffffffffffffffffffffffffffffffffffffffff160217905550604082015181600201556060820151816003015560808201518160040160006101000a81548160ff02191690831515021790555060a08201518160040160016101000a81548160ff02191690831515021790555060c08201518160040160026101000a81548160ff02191690831515021790555060e08201518160040160036101000a81548160ff0219169083151502179055506101008201518160040160046101000a81548160ff02191690831515021790555090505060025490509392505050565b600080600080600080600080600080600160008c815260200190815260200160002090508060000160009054906101000a900473ffffffffffffffffffffffffffffffffffffffff168160010160009054906101000a900473ffffffffffffffffffffffffffffffffffffffff16826002015483600301548460040160009054906101000a900460ff168560040160019054906101000a900460ff168660040160029054906101000a900460ff168760040160039054906101000a900460ff168860040160049054906101000a900460ff16995099509950995099509950995099509950509193959799909294969850565b604051806101200160405280600073ffffffffffffffffffffffffffffffffffffffff168152602001600073ffffffffffffffffffffffffffffffffffffffff16815260200160008152602001600081526020016000151581526020016000151581526020016000151581526020016000151581526020016000151581525090565b6000819050919050565b6114d4816114c1565b82525050565b60006020820190506114ef60008301846114cb565b92915050565b600080fd5b611503816114c1565b811461150e57600080fd5b50565b600081359050611520816114fa565b92915050565b60006020828403121561153c5761153b6114f5565b5b600061154a84828501611511565b91505092915050565b600073ffffffffffffffffffffffffffffffffffffffff82169050919050565b600061157e82611553565b9050919050565b61158e81611573565b82525050565b60008115159050919050565b6115a981611594565b82525050565b6000610120820190506115c5600083018c611585565b6115d2602083018b611585565b6115df604083018a6114cb565b6115ec60608301896114cb565b6115f960808301886115a0565b61160660a08301876115a0565b61161360c08301866115a0565b61162060e08301856115a0565b61162e6101008301846115a0565b9a9950505050505050505050565b61164581611594565b811461165057600080fd5b50565b6000813590506116628161163c565b92915050565b6000806040838503121561167f5761167e6114f5565b5b600061168d85828601611511565b925050602061169e85828601611653565b9150509250929050565b600081519050919050565b600082825260208201905092915050565b6000819050602082019050919050565b6116dd81611573565b82525050565b6116ec816114c1565b82525050565b6116fb81611594565b82525050565b6101208201600082015161171860008501826116d4565b50602082015161172b60208501826116d4565b50604082015161173e60408501826116e3565b50606082015161175160608501826116e3565b50608082015161176460808501826116f2565b5060a082015161177760a08501826116f2565b5060c082015161178a60c08501826116f2565b5060e082015161179d60e08501826116f2565b506101008201516117b26101008501826116f2565b50505050565b60006117c48383611701565b6101208301905092915050565b6000602082019050919050565b60006117e9826116a8565b6117f381856116b3565b93506117fe836116c4565b8060005b8381101561182f57815161181688826117b8565b9750611821836117d1565b925050600181019050611802565b5085935050505092915050565b6000602082019050818103600083015261185681846117de565b905092915050565b61186781611573565b811461187257600080fd5b50565b6000813590506118848161185e565b92915050565b6000806000606084860312156118a3576118a26114f5565b5b60006118b186828701611875565b93505060206118c286828701611875565b92505060406118d386828701611511565b9150509250925092565b600082825260208201905092915050565b7f4f6e6c792074686520636c69656e742063616e2063616e63656c20746865207060008201527f726f6a6563740000000000000000000000000000000000000000000000000000602082015250565b600061194a6026836118dd565b9150611955826118ee565b604082019050919050565b600060208201905081810360008301526119798161193d565b9050919050565b7f576f726b20697320636f6d706c6574656420736f207468652070726f6a65637460008201527f2063616e6e6f742062652063616e63656c6c6564000000000000000000000000602082015250565b60006119dc6034836118dd565b91506119e782611980565b604082019050919050565b60006020820190508181036000830152611a0b816119cf565b9050919050565b7f4f6e6c792074686520667265656c616e6365722063616e20726571756573742060008201527f6120726566756e64000000000000000000000000000000000000000000000000602082015250565b6000611a6e6028836118dd565b9150611a7982611a12565b604082019050919050565b60006020820190508181036000830152611a9d81611a61565b9050919050565b7f526566756e64732063616e206f6e6c792062652072657175657374656420616660008201527f7465722074686520646561646c696e6500000000000000000000000000000000602082015250565b6000611b006030836118dd565b9150611b0b82611aa4565b604082019050919050565b60006020820190508181036000830152611b2f81611af3565b9050919050565b7f46756e6473206861766520616c7265616479206265656e2072656c6561736564600082015250565b6000611b6c6020836118dd565b9150611b7782611b36565b602082019050919050565b60006020820190508181036000830152611b9b81611b5f565b9050919050565b7f4f6e6c79206d65646961746f7220697320616c6c6f77656420746f207265736f60008201527f6c76652064697370757465000000000000000000000000000000000000000000602082015250565b6000611bfe602b836118dd565b9150611c0982611ba2565b604082019050919050565b60006020820190508181036000830152611c2d81611bf1565b9050919050565b7f44697370757465206973206e6f742072616973656420746f206265207265736f60008201527f6c76656400000000000000000000000000000000000000000000000000000000602082015250565b6000611c906024836118dd565b9150611c9b82611c34565b604082019050919050565b60006020820190508181036000830152611cbf81611c83565b9050919050565b7f4f6e6c792074686520636c69656e742063616e2072656c65617365207468652060008201527f66756e6473000000000000000000000000000000000000000000000000000000602082015250565b6000611d226025836118dd565b9150611d2d82611cc6565b604082019050919050565b60006020820190508181036000830152611d5181611d15565b9050919050565b7f576f726b206d757374206265206163636570746564206265666f72652066756e60008201527f64732063616e2062652072656c65617365640000000000000000000000000000602082015250565b6000611db46032836118dd565b9150611dbf82611d58565b604082019050919050565b60006020820190508181036000830152611de381611da7565b9050919050565b7f446561646c696e6520686173207061737365642c2066756e64732063616e6e6f60008201527f742062652072656c656173656400000000000000000000000000000000000000602082015250565b6000611e46602d836118dd565b9150611e5182611dea565b604082019050919050565b60006020820190508181036000830152611e7581611e39565b9050919050565b7f5468652070726f6a656374206973206e6f206c6f6e67657220617661696c616260008201527f6c65000000000000000000000000000000000000000000000000000000000000602082015250565b6000611ed86022836118dd565b9150611ee382611e7c565b604082019050919050565b60006020820190508181036000830152611f0781611ecb565b9050919050565b7f4f6e6c792074686520667265656c616e6365722063616e20636f6d706c65746560008201527f2074686520776f726b0000000000000000000000000000000000000000000000602082015250565b6000611f6a6029836118dd565b9150611f7582611f0e565b604082019050919050565b60006020820190508181036000830152611f9981611f5d565b9050919050565b7f4e487b7100000000000000000000000000000000000000000000000000000000600052604160045260246000fd5b7f4e487b7100000000000000000000000000000000000000000000000000000000600052601160045260246000fd5b6000612009826114c1565b9150612014836114c1565b925082820390508181111561202c5761202b611fcf565b5b92915050565b7f4e487b7100000000000000000000000000000000000000000000000000000000600052603260045260246000fd5b600061206c826114c1565b91507fffffffffffffffffffffffffffffffffffffffffffffffffffffffffffffffff820361209e5761209d611fcf565b5b600182019050919050565b7f4f6e6c792074686520636c69656e742063616e2061636365707420746865207760008201527f6f726b0000000000000000000000000000000000000000000000000000000000602082015250565b60006121056023836118dd565b9150612110826120a9565b604082019050919050565b60006020820190508181036000830152612134816120f8565b9050919050565b7f576f726b206d75737420626520636f6d706c65746564206265666f726520697460008201527f2063616e20626520616363657074656400000000000000000000000000000000602082015250565b60006121976030836118dd565b91506121a28261213b565b604082019050919050565b600060208201905081810360008301526121c68161218a565b9050919050565b7f4f6e6c7920636c69656e7420616e6420667265656c616e6365722063616e207260008201527f6169736520746865206469737075746500000000000000000000000000000000602082015250565b60006122296030836118dd565b9150612234826121cd565b604082019050919050565b600060208201905081810360008301526122588161221c565b9050919050565b7f50726f6a6563742066756e6473206172652072656c656173656420736f20746860008201527f6520646973707574652063616e6e6f7420626520726169736564000000000000602082015250565b60006122bb603a836118dd565b91506122c68261225f565b604082019050919050565b600060208201905081810360008301526122ea816122ae565b9050919050565b60006122fc826114c1565b9150612307836114c1565b925082820190508082111561231f5761231e611fcf565b5b9291505056fea2646970667358221220d09f916345e5d160c404f9dd71fbd4de56c92ac442a0eef14687b0794cc3129664736f6c63430008120033",
  "linkReferences": {},
  "deployedLinkReferences": {}
}